:4000000000800020110000003D0500003D05000080B500AF024A034B1B68136000F098FABC760040FA46004010B5054C237833B9044B13B10448AFF300800123237010BD01
:400040008881FF1F00000000F0190000084B10B51BB108480849AFF300800848036803B910BD074B002BFBD0BDE81040184700BF00000000F01900008C81FF1F0881FF1F2F
:400080000000000080B400AF044B01221A60044B1B78BD465DF8047B704700BFA481FF1F034F004080B483B000AF0346FB800B46BB8013467B80FA88B7F90610B7F9043087
:4000C00091FBF3F39BB2D31A9BB2FB80B7F90220B7F9043092FBF3F39AB2FB8813449BB2FB80FB881BB218460C37BD465DF8047B704700BF80B586B000AF62B600F0C4FF52
:4001000001F07AFB3B4801F0B9FB00F0C1FC00F07DF800F087F83B4600221A60043300221A60043300221A60043300221A60043300221A60043300F0ADF80346FB822E4B3C
:400140001B68012B54D12D4B1B680E2B07DCB7F916202B4B1B681344294A13602FE0274B1B680F2B13D1B7F91620254B1B681344234A1360224B1B68224A82FB03121A44FA
:40018000D210DB17D31A9AB21F4B1A8017E01E4B1B881AB2B7F9163010460F211A46FFF781FF03461A46184B1A800020012100F07FFC154B1B889BB2184600F027FE124B9A
:4001C0001B881BB244F6206293420CDD4FF4FA6000F07AFE094B00221A60094B00221A60094B00221A80054B1B680133034A1360A1E700BF85000000A481FF1F0C81FF1F9F
:40020000A881FF1F89888888AC81FF1F80B400AF034B68221A70BD465DF8047B704700BFCA81FF1F80B500AF012000F05FF8002000F008F8002000F019F8002000F044F847
:4002400080BD00BF80B584B002AF0346FB71064B1A78FB79009310461B210422022300F0E1F80837BD4680BDCA81FF1F80B584B002AF0346FB71064B1A78FB79009310462C
:400280001C210422022300F0CDF80837BD4680BDCA81FF1F80B500AF094B1B7818463F210222084B00F036F8064B1B781B029AB2044B5B789BB213439BB21BB2184680BD34
:4002C000CA81FF1FB481FF1F80B582B000AF0346FB71054B1A78FB7910466B21062200F0EFF80837BD4680BDCA81FF1F80B584B002AF0346FB71064B1A78FB790093104649
:400300006B210222032300F08DF80837BD4680BDCA81FF1F90B585B000AF3B600346FB710B46BB7113467B710023FB73FB791846002101F095F8BB79184601F06DF9FB79F0
:400340001846012101F0EAF807E03C68631C3B60012001F0A1F903462370FB7B5A1CFA731A467B79013B9A42EFDB002001F094F903461A463B681A7001F022F91437BD46A0
:4003800090BD00BF80B582B000AF03463A60FB710B46BB71FA79BB791046194601223B68FFF7B8FF0837BD4680BD00BF80B584B000AF3B600346FB710B46BB7113467B7118
:4003C0000023FB73FB791846002101F049F8BB79184601F021F906E03B685A1C3A601B78184601F019F9FB7B5A1CFA737A799A42F2D801F0E5F81037BD4680BD80B582B06F
:4004000000AF0346FB710B46BB7113467B71F979BA797B1D084611460122FFF7C7FF0837BD4680BD90B585B000AF0446084611461A462346FB710346BB710B467B711346FE
:400440003B713B79012202FA03F35A1E79793B79CB1A013302FA03F3FB73F979BA7907F10E03084611461A46FFF78CFF97F8202079793B79CB1A013302FA03F387F82030ED
:4004800097F82020FB7B134087F82030FB7BDB43DAB2BB7BDBB21340DBB2DBB2BB73BA7B97F820301343DBB2BB73BB7BF979BA79084611461A46FFF7A1FF1437BD4690BD21
:4004C00090B585B000AF0446084611461A462346FB710346BB710B467B7113463B71F979BA7907F10F03084611461A46FFF74AFF3B79002B0AD07B79012202FA03F3DAB2B7
:40050000FB7BDBB21343DBB2DBB20BE07B79012202FA03F3DBB2DB43DAB2FB7BDBB21340DBB2DBB2FB73FB7BF979BA79084611461A46FFF763FF1437BD4690BD80B500AF48
:4005400001F016FA03461B680C2B00D1FEE7FEE780B586B000AF224B7B61224B3B61204B7B6135E03B691B68FB603B695B68BB603B699B683B6000237B600CE0FB681A68FF
:40058000BB681A60BB680433BB60FB680433FB607B6804337B607A683B689A42EED13B69DB683B6000237B6008E0BB6800221A60BB680433BB607B6804337B607A683B6809
:4005C0009A42F2D13B6910333B617B69013B7B617B69002BC6D101F0D1F9FFF78BFDFEE7010000006C1A000080B582B000AF174B174A1A60174A174B1B6843F400731360DC
:4006000000237B600FE07B68032B04D8124A7B6852F8233000E0114B11497A6841F822307B6801337B607B682F2BECD90D4B1B78DAB20D4B1A700D4B094A1A6000F048F95E
:400640000B4B00221A600837BD4680BD0CED00E00004FA0514ED00E0000000003D0500000080FF1FBC7600400481FF1F08ED00E00081FF1F80B582B000AF7860396078687C
:4006800000213A6801F0ABF90837BD4680BD00BF80B584B000AFF860B9607A60F868B9687A6801F091F91037BD4680BD80B483B000AF0346FB71FEE780B487B000AF78603A
:4006C000396000233B6100237B6127E07B699B007A6813441B68BB60BB68FB73BB6823F0FF03BB6014E03B695B003A6813441B781A46BB68134419463B695B003A681344B2
:400700005B780B703B6901333B61FB7B013BFB73FB7B002BE7D17B6901337B617B69122BD4D91C37BD465DF8047B704780B582B000AF3C4B00221A803B4B50221A703B487D
:400740003B490422FFF7A4FF3A4B02221A704FF0402308221A70384B03221A70374B384A1278D2B21A70374B08221A80364B41F251221A800023FB7019237B6014E0FB78CC
:400780005B00DAB2314B1B78DBB203F00103DBB21343DBB203F00303FB704FF4F07001F0BBF87B68013B7B607B68002B02D0FB78032BE4D17B68002B02D10320FFF776FF05
:4007C000234B4FF480721A80214B07221A70214B00221A70204B48221A701D4B00221A701E4B02221A701E4B04221A701D4A1D4B1B78DBB243F00103DBB213701A4A1A4BE3
:400800001B78DBB243F00103DBB21370174A174B1B78DBB263F07F03DBB213700837BD4680BD00BF804000408240004000410040E00000480043004000420040A146004074
:4008400008010049224200402042004025420040044000400640004008400040014000400B400040A2430040A1430040A043004080B483B000AF0F4B1B78FB710E4AFB79F4
:4008800003F00703DBB213700C4AFB791B09DBB213700B4B04221A700A4B40221A700A4B40221A70094B44221A700C37BD465DF8047B7047CF0100496E5800406F5800406A
:4008C0003D510040005B0040585B00407658004080B582B000AF72B63A4A3A4B1B78DBB243F00403DBB213700023FB7113E0FA7913465B0013445B00334A13443B603B6870
:400900001A683B689B889BB210461946FFF7B2FEFB790133FB71FB790A2BE8D94FF090402A49FFF7C9FE2A4B0A221A70294A294B1B78DBB243F00203DBB21370264A264BAF
:400940001B78DBB243F00203DBB21370234A234B1B78DBB243F04003DBB21370204A204B1B78DBB243F01003DBB213701D481E490A22FFF78DFE1D481D490822FFF788FE59
:400980001C481D490822FFF783FE1C4A1B4B1B78DBB243F00803DBB21370194B00221A70FFF7C4FE164B80221A70164B01221A70FFF75EFF144809490E22FFF769FE083762
:4009C000BD4680BDE8460040001A00004C000048835800400350014013500140A0430040C243004010510040C400004822510040D000004832510040D800004822430040E0
:400A00000048004004000840B043004080B500AF282000F059FA032000F0C8F9052000F053FA032000F0C2F90F2000F04DFA032000F0BCF9012000F047FA022000F0B6F9FB
:400A4000052000F041FA062000F09EF80E2000F09BF82C2000F098F8082000F095F8012000F092F80C2000F08FF8032000F08CF8052000F029FA80BD80B500AF0C2000F00E
:400A800083F8024B01221A7080BD00BFB081FF1F80B500AF054B1B78002B04D1FFF7B6FF024B01221A70FFF7E7FF80BDB181FF1F80B582B000AF03460A46FB711346BB7101
:400AC000FB79032B26D801A252F823F0DD0A0000EB0A0000F90A0000070B0000BB79803BDBB2184600F050F815E0BB79403BDBB2184600F049F80EE0BB796C3BDBB21846DF
:400B000000F042F807E0BB792C3BDBB2184600F03BF800E000BF0837BD4680BD80B584B000AF78600123FB737B681B78BB730BE0BB7B184600F00EF8FB7B7A6813441B7800
:400B4000BB73FB7B0133FB73BB7B002BF0D11037BD4680BD80B584B000AF0346FB7100F02DF8FB791B09FB73FB7B184600F0E2F8FB7903F00F03FB73FB7B184600F0DAF883
:400B80001037BD4680BD00BF80B584B000AF0346FB7100F013F8FB791B09FB73FB7B184600F004F9FB7903F00F03FB73FB7B184600F0FCF81037BD4680BD00BF80B582B014
:400BC00000AF4FF4CA737B60554A554B1B78DBB223F07F03DBB21370524B1B78DBB223F00F03FB704F4AFB7843F00F03DBB213704D4B1B78DBB223F00F03FB704A4AFB78EA
:400C000013704A4B1B78DBB223F00F03FB70474AFB781370424A424B1B78DBB223F02003DBB213703E4A3E4B1B78DBB243F04003DBB21370002000F069F9394A384B1B7824
:400C4000DBB243F01003DBB21370012000F05EF9374B1B78FB70324A314B1B78DBB223F01003DBB21370002000F050F9FB7803F00803FB702A4A2A4B1B78DBB243F01003D7
:400C8000DBB21370012000F041F9254A244B1B78DBB223F01003DBB21370FB78002B02D10A2000F033F97B68013B7B60FB78002B02D07B68002BBDD1194A194B1B78DBB201
:400CC00023F04003DBB21370154A154B1B78DBB223F07F03DBB21370124A124B1B78DBB223F00F03DBB213700F4B1B78DBB223F00F03FB700C4AFB7843F00F03DBB21370D4
:400D00000A4B1B78DBB223F00F03FB70074AFB7843F00F03DBB213700837BD4680BD00BF205100402251004023510040245100402151004080B582B000AF0346FB711A4AA9
:400D4000194B1B78DBB243F02003DBB21370164A154B1B78DBB223F04003DBB21370002000F0D4F8104A104B1B78DBB223F00F03DBB213700C490C4B1B78DAB2FB791343C8
:400D8000DBB243F01003DBB20B70012000F0BEF8054A054B1B78DBB223F01003DBB213700837BD4680BD00BF2051004080B582B000AF0346FB71144A134B1B78DBB223F0F3
:400DC0006003DBB21370104A0F4B1B78DBB223F00F03DBB213700C490B4B1B78DAB2FB791343DBB243F01003DBB20B70012000F08DF8054A044B1B78DBB223F01003DBB201
:400E000013700837BD4680BD2051004080B586B000AF78600A23FB75FB7D07F118021344002203F8102CFB7D013BFB751CE079681E4BA3FB0123DA0813469B0013445B0082
:400E4000CA1AD3B23033BB75FB7D07F118021344BA7D03F8102C7B68144AA2FB0323DB087B60FB7D013BFB757B68092BDFD879680E4BA3FB0123DA0813469B0013445B00EF
:400E8000CA1AD3B23033BB75FB7D07F118021344BA7D03F8102CFB7D07F1080213441846FFF73CFE1837BD4680BD00BFCDCCCCCC80B483B000AF0346FB7101BE0C37BD4639
:400EC0005DF8047B704700BF80B582B000AF786008E00C4B1B68184600F01EFD7B68A3F500437B607B68B3F5004FF2D8064B1B687A6802FB03F3184600F00EFD0837BD460E
:400F000080BD00BF1C81FF1F1481FF1F80B582B000AF0346FB80FB88044A127802FB03F3184600F0F9FC0837BD4680BD1881FF1F80B584B000AF03463960FB710F4B1B6863
:400F4000FB60FB791F2B02D90020FFF7B1FFFB7903F01F0310339B00FA6813441B68BB60FB7903F01F0310339B00FA6813443A681A60BB6818461037BD4680BD08ED00E0E0
:400F800080B582B000AF03460A46FB711346BB71BB79072B02D90020FFF78AFFFB791F2B02D90020FFF784FFFB7903F01F0303F1604303F56443BA795201D2B21A700837ED
:400FC000BD4680BD80B500AF134B02221A70134B81221A70124B08221A70124B0F221A70114B00221A70114B4FF400421A600F200721FFF7C5FF0F200D49FFF799FF0D4B2E
:4010000010221A700C4B00221A700C4B00221A700B4B00221A7080BDD6490040C8490040CA490040DB490040DC49004080E100E0B5100000CB81FF1FD981FF1FCC81FF1F90
:40104000CD81FF1F80B582B000AF00F084FC0346FB710B4A0A4B1B78DBB243F00403DBB21370084A074B1B78DBB243F00403DBB21370FB79184600F072FC0837BD4680BDF8
:40108000A5430040B543004080B500AF074B1B78002B04D1FFF796FF044B01221A70FFF7D1FF034B4FF400421A6080BDB281FF1F00E100E080B582B000AFA84B1B78FB7116
:4010C000A74B1B78DBB203F04003DBB2002B00F0AC81FB7903F00103002B00F08381A04B1B78DBB2453B052B00F2788101A252F823F000BF0D11000035120000DD1300008F
:40110000DD1300000D11000023130000FB7923F02003FB71FB7903F00A03DBB2082B46D18F4B1B78DBB2452B3AD18E4B1B78DBB2002B0FD08C4A8D4B1B681B78DBB21370BE
:40114000864B04221A708A4B01221A70844B46221A706EE0874B1B78DBB203F00203002B0FD0854B1B78DBB243F00A03DAB2824B1A707B4B60221A70804B4FF400421A60BA
:4011800057E07F4A7E4B1B78DBB243F01003DBB213707C4B10221A70704B04221A7048E06E4B00221A706E4B4A221A701AE1FB7903F00A03DBB20A2B37D16F4B1B78DBB2B3
:4011C00063F05F03DAB26C4B1A706A4B1B78DBB203F00203002B19D0614B1B78DBB203F00803002B01D0092300E00A23DAB2624B1B78DBB21343DAB25F4B1A70584B6022F9
:401200001A705E4B4FF400421A6012E05C4A5C4B1B78DBB243F01003DBB21370594B10221A704E4B04221A70DCE00020FFF740FED8E0D7E0FB7903F00203002B42D14C4B5E
:401240001B78DAB2474B1B78DBB29A4214D2464A464B1B6846490978C9B20B441B78DBB213703E4B04221A70414B1B78DBB20133DAB23F4B1A7053E03E4B1B78DBB203F032
:401280000203002B0FD03C4B1B78DBB243F00A03DAB2394B1A70324B60221A70374B4FF400421A603CE0364A354B1B78DBB243F01003DBB21370334B10221A70274B042230
:4012C0001A708FE02B4B1B78DBB203F00203002B0FD0294B1B78DBB263F06503DAB2264B1A701F4B60221A70244B4FF400421A6016E0234A224B1B78DBB243F01003DBB2E0
:401300001370204B10221A70144B04221A701A4B1B78DBB263F06F03DAB2174B1A7061E060E0194B1B68194A1278D2B213440E4A1278D2B21A70154B1B78DBB20133DAB2D2
:40134000124B1A70114B1B78DAB2114B1B78DBB29A421FD2014B10221A703EE0D7490040CB81FF1FCE81FF1FD8490040D081FF1FCD81FF1FD881FF1FD981FF1F80E100E0F9
:40138000D6490040D9490040D481FF1FCC81FF1FDA81FF1F2C4B1B78DBB203F00203002B0FD02A4B1B78DBB243F00903DAB2274B1A70274B60221A70264B4FF400421A6032
:4013C0000BE0254A244B1B78DBB243F01003DBB21370224B00221A7004E003E00020FFF767FD00BFFB7903F02003002B28D0184B1B78DBB203F00803002B01D0012300E067
:401400000223DAB2114B1B78DBB21343DAB20F4B1A70114A104B1B78DBB223F01003DBB213700B4B10221A700AE0094B1B78DBB203F01003DBB2002B02D1054B10221A70A0
:401440000837BD4680BD00BFD881FF1FD981FF1FCB81FF1F80E100E0D6490040D749004080B485B000AF03460A46FB711346BB710223FB73244B1B78DBB2102B3CD1234B5B
:401480001B78DBB203F00803002B33D1204B4FF400421A60FB795B00FB71BB79002B07D0FB7943F00103FB71174B49221A7002E0154B45221A70174AFB791370134B01228A
:4014C0001A7000BF144B1B78DBB203F00103002BF8D0114B1B78DBB203F00A03DBB20A2B05D1094B10221A700323FB7304E00023FB7301E00123FB73FB7B18461437BD4678
:401500005DF8047B704700BFCB81FF1FD949004080E100E0D8490040D749004080B485B000AF03460A46FB711346BB710223FB731F4B1B78DBB203F00403002B31D0FB793A
:401540005B00FB71BB79002B07D0FB7943F00103FB71184B49221A7002E0164B45221A70154AFB791370124B12221A70134B04221A7000BF114B1B78DBB203F00103002BEF
:40158000F8D00E4B1B78DBB203F00A03DBB20A2B05D1084B10221A700323FB7301E00023FB73FB7B18461437BD465DF8047B7047D9490040CB81FF1FD8490040D749004003
:4015C00080B483B000AF0223FB71104B1B78DBB203F00403002B12D00C4B10221A700C4B04221A700B4B10221A7000BF084B1B78DBB203F02103002BF8D00023FB71FB7957
:4016000018460C37BD465DF8047B7047D9490040D7490040CB81FF1F80B485B000AF0346FB710223FB73184B1B78DBB203F00403002B22D0154AFB791370154B04221A70EF
:40164000144B46221A7000BF114B1B78DBB203F00103002BF8D00E4B1B78DBB203F00203002B05D10B4B60221A700023FB7304E0084B60221A700323FB73FB7B1846143799
:40168000BD465DF8047B7047D9490040D8490040D7490040CB81FF1F80B485B000AF0346FB710023FB73174B1B78DBB203F00403002B1FD0144B1B78DBB2492B05D1134BF4
:4016C00000221A70104B4A221A7000BF0F4B1B78DBB203F00103002BF8D00D4B1B78FB73FB79002B03D0094B10221A7002E0064B60221A70FB7B18461437BD465DF8047BBA
:40170000704700BFD9490040CB81FF1FD7490040D849004080B500AF214A214B1B78DBB203F00103DBB213701E4A1E4B1B78DBB223F00303DBB213701B4A1B4B1B78DBB2BF
:4017400023F03003DBB21370174A174B1B78DBB243F03003DBB21370134A134B1B78DBB223F00F03DBB213700F4A0F4B1B78DBB243F00F03DBB213700C4A0C4B1B78DBB2B5
:4017800043F00103DBB213704BF67F3000F054F84BF67F3000F062F8082000F03DF880BD004F0040024F00400B4F0040014F004080B400AF0D4A0D4B1B78DBB243F00103BF
:4017C000DBB213700A4A0A4B1B78DBB243F00103DBB21370074A074B1B78DBB243F00103DBB21370BD465DF8047B7047A3430040B3430040004F004080B500AF054B1B787F
:40180000002B04D1FFF786FF024B01221A70FFF7CFFF80BDB381FF1F80B483B000AF0346FB71044AFB7913700C37BD465DF8047B704700BF034F004080B485B000AF03464D
:40184000FB80FB88FB81044AFB8913801437BD465DF8047B704700BF044F004080B483B000AF0346FB80044AFB8813800C37BD465DF8047B704700BF064F004080B582B094
:4018800000AF786000F03CF8786800F009F8072000F018F800F028F80837BD4680BD00BF80B485B000AF7860054B1B68FB60FB6884337A681A601437BD465DF8047B7047CA
:4018C00008ED00E080B483B000AF0346FB71054AFB795B01DBB213700C37BD465DF8047B704700BF11E400E080B400AF034B4FF400321A60BD465DF8047B704700E100E045
:4019000080B400AF034B4FF400321A60BD465DF8047B704780E100E0142816D902B4012114381049097811F0C001890904B40E4A515C04BC00BF00BF00BF8841FDD500BF27
:4019400000BF02BC704700BF00BF70F10400FCD570470B050709EFF3108072B6704780F3108870470048004052190000AFF30080014B1868704700BF8081FF1F0E4B70B5A1
:401980001E460E4C0025E41AA410A54204D056F8253098470135F8E700F056F8084B094C1E46E41AA4100025A54204D056F8253098470135F8E770BD541A0000541A0000C4
:4019C000541A00005C1A000010B5431E0A44914204D011F8014B03F8014FF8E710BD03460244934202D003F8011BFAE77047000000000000035B0040244300404000000032
:401A0000C84900401900004F00400C00005100401000405100403000C05100401000F0510040100000000140001000140140000800400140000A004C0140000200500140B4
:401A40002000000043000000F8B500BFF8BC08BC9E4670474D000000E9050000F8B500BFF8BC08BC9E46704729000000801A00000881FF1F80000000580000000000000088
:401A8000000000000100000000366E01C05D0000180000000000E02E0000000000000000000000000000000000000000000000000000000000000000441A000000000000DF
:401AC00000000000000000000000000000000000000000000000000000000000000000000000000000000000000000000000000000000000000000002081FF1F0000000027
:401B000000000000000000000000000000000000000000000000000000000000000000000000000000000000000000000000000000000000000000000000000000000000A5
:401B40000000000000000000000000000000000000000000000000000000000000000000000000000000000000000000000000000000000000000000000000000000000065
:401B80000000000000000000000000000000000000000000000000000000000000000000000000000000000000000000000000000000000000000000000000000000000025
:401BC00000000000000000000000000000000000000000000000000000000000000000000000000000000000000000000000000000000000000000000000000000000000E5
:020000040003F7
:0200000480007A
:40000000024F0040025200400107014002090140040A0140020B014002150140021B0140044201400343014002440140014501400346014003470140034801400349014069
:40004000104C0140034D01400151014001800A4B08400C44EE08AF20B502B822BE11D804DF011D021F20EA01EC10EA01EC103E106302CE20D6409610AF01EE107C01DE01DD
:40008000940145089401D001A508B401EC0825109610C820AA10B510EA800010081011011320150851045D0178107C10A508C002C202C40ED404D601DE03AB20B508EC0894
:4000C00003C000004400000B4F00440000000000007F7F000000000000000000000004004A00180100000000000000000000000000000000000000000000000000000000F6
:4001000000000000000000000000000000000000000000000000000000000000000000000000000000000000000000000000000000000000000000000000000000000000BF
:40014000000000000000000000000000000000000000000000000000000000000000000000000000000000000000000000000000000000000000000000000000000000007F
:40018000000000000000000000000000000000000000000000000000000000000000000000000000000000000000000000000000000000000000000000000000000000003F
:4001C00000000000000000000000000000000000000000000000000000000000000000000000000000000000000000000000000000000000000000000000000000000000FF
:0200000490006A
:0400000000004005B7
:0200000490105A
:04000000BC90ACAF55
:0200000490303A
:02000000746129
:0200000490402A
:4000000000000000000000000000000000000000000000000000000000000000000000000000000000000000000000000000000000000000000000000000000000000000C0
:400040000000000000000000000000000000000000000000000000000000000000000000000000000000000000000000000000000000000000000000000000000000000080
:400080000000000000000000000000000000000000000000000000000000000000000000000000000000000000000000000000000000000000000000000000000000000040
:4000C0000000000000000000000000000000000000000000000000000000000000000000000000000000000000000000000000000000000000000000000000000000000000
:0200000490501A
:0C00000000012E12706900012E1CE4CAE1
:00000001FF