:400000000080002011000000250500002505000080B500AF024A034B1B68136000F0B4FABC760040FA46004010B5054C237833B9044B13B10448AFF300800123237010BD15
:400040009081FF1F00000000942D0000084B10B51BB108480849AFF300800848036803B910BD074B002BFBD0BDE81040184700BF00000000942D00009481FF1F0881FF1FAF
:400080000000000080B590B002AF62B601F04EFF00F062FD01F000F92F4B1B68DBB2184610210222002300F061F800F08DF82B4800F0D8F90020012100F006F9284800F0A8
:4000C000D1F94FF47A7000F011FF00F0E9F801F0FBF80020002100F04FFD224800F082FD012001F085FE0020002100F0EDF81E4800F0B8F941F28A030093012000214FF474
:40010000C8624FF4DE7300F0E5F9012001F0ECF80346002B1FD001F00FF978637B6B002B02DA00237B630BE07B6B40F6B832934203DD012001F07AFE02E0002001F076FE81
:400140007B6B9AB241F28A030093012000214FF4DE7300F0BFF9D8E70C81FF1F982D0000A82D0000B42D0000BC2D000090B482B000AF0446084611461A462346FB7103461C
:40018000BB710B467B7113463B710A4AFB791370094ABB791370094A7B791370084A3B791370084B08221A7000BF0837BD4690BC704700BFD181FF1FD681FF1FD781FF1F04
:4001C000D381FF1FD081FF1F80B500AF2E4B00221A702E4B1B78012B06D92B4B1B7843F00803DAB2284B1A70294B1B78002B0AD0264B1B78012B06D1234B1B7843F00403E0
:40020000DAB2214B1A70322000F070FE214B1B78184600F0F1F84FF47A7000F067FE302000F0D8F841F2941000F082FE302000F0D1F841F2941000F07BFE302000F0CAF832
:40024000962000F075FE202000F0C4F80E4B1B7843F02003DBB2184600F07EF80E4B04221A7000F063F800F01BF80C4B02221A700A4B1B7843F00403DBB2184600F06CF829
:4002800000F018F800BF80BDD581FF1FD781FF1FD381FF1FD081FF1FD281FF1FD481FF1F80B500AF012000F057F8022000F01EFE00BF80BD80B500AF022000F04DF80220C8
:4002C00000F014FE00BF80BD90B587B000AF03460A46FB711346BB71124B07F108040FCB84E80F00104B1B78BA799A4203D90E4B1B78013BBB71BB799B0007F11802134430
:4003000053F8103CDAB2FB791344DBB2DBB263F07F03DBB2DBB2184600F01EF800BF1C37BD4690BDCC2D0000D781FF1F80B500AF084B1B7843F00403DAB2064B1A70054BD6
:400340001B7843F00803DBB2184600F005F800BF80BD00BFD281FF1F80B582B000AF0346FB71FB791846002100F012F800BF0837BD4680BD80B582B000AF0346FB71FB7973
:400380001846012100F004F800BF0837BD4680BD80B584B000AF03460A46FB711346BB71FB7923F00F03FB73FB791B01BB73FA7BBB791343DBB2184600F00CF8BA7BBB79E5
:4003C0001343DBB2184600F005F800BF1037BD4680BD00BF80B582B000AF0346FB71FB79184600F009F8FB79184600F01DF800BF0837BD4680BD00BF80B582B000AF034609
:40040000FB71074B1978074B1A78FB791343DBB20846194600F046F800BF0837BD4680BDD181FF1FD081FF1F80B582B000AF0346FB71FB7943F00403DBB21846FFF7DCFF05
:40044000012000F075FDFB7923F00403DBB21846FFF7D2FF322000F06BFD00BF0837BD4680BD00BF80B584B000AF78600023FB60786802F0A1F80346FB720023FB6009E01C
:400480007A68FB6813441B781846FFF773FFFB680133FB60FA7AFB689A42F1D800BF1037BD4680BD80B582B000AF03460A46FB711346BB71FB791846002101F023FFBB79B9
:4004C000184601F0A9FF01F07BFF00BF0837BD4680BD00BF90B585B002AF0446084611461A462346FB710346BB710B46BB8013467B80BA887C883B8B009308480849234650
:4005000002F036F8BA79FB7910461946FFF7DCFE0248FFF7A7FF0C37BD4690BDD881FF1FDC2D000080B500AF01F0E2FF03461B680C2B00D1FEE7FEE780B584B000AF786032
:400540000F4B1A687B6813441A460E4BD31A802B09DC0B4B1B68FB60094B1A687B681344074A136007E001F0C3FF02460C2313604FF0FF33FB60FB6818461037BD4680BD8F
:400580001081FF1F0882FF1F80B586B000AF224B7B61224B3B61204B7B6135E03B691B68FB603B695B68BB603B699B683B6000237B600CE0FB681A68BB681A60BB68043310
:4005C000BB60FB680433FB607B6804337B607A683B689A42EED13B69DB683B6000237B6008E0BB6800221A60BB680433BB607B6804337B607A683B689A42F2D13B6910333A
:400600003B617B69013B7B617B69002BC6D101F075FFFFF737FDFEE7010000008C2E000080B582B000AF174B174A1A60174A174B1B6843F40073136000237B600FE07B68C7
:40064000032B04D8124A7B6852F8233000E0114B11497A6841F822307B6801337B607B682F2BECD90D4B1B78DAB20D4B1A700D4B094A1A6000F086F90B4B00221A6008377F
:40068000BD4680BD0CED00E00004FA0514ED00E000000000250500000080FF1FBC7600400481FF1F08ED00E00081FF1F80B582B000AF78603960786800213A6801F04FFF83
:4006C0000837BD4680BD00BF80B584B000AFF860B9607A60F868B9687A6801F035FF1037BD4680BD80B483B000AF0346FB71FEE780B487B000AF7860396000233B6100232D
:400700007B6127E07B699B007A6813441B68BB60BB68FB73BB6823F0FF03BB6014E03B695B003A6813441B781A46BB68134419463B695B003A6813445B780B703B690133C6
:400740003B61FB7B013BFB73FB7B002BE7D17B6901337B617B69112BD4D91C37BD465DF8047B704780B582B000AF3C4B00221A803B4B50221A703B483B490422FFF7A4FF21
:400780003A4B02221A704FF0402308221A70384B03221A70374B384A1278D2B21A70374B08221A80364B41F251221A800023FB7019237B6014E0FB785B00DAB2314B1B78D9
:4007C000DBB203F00103DBB21343DBB203F00303FB704FF4F07001F05FFE7B68013B7B607B68002B02D0FB78032BE4D17B68002B02D10320FFF776FF234B4FF480721A80D4
:40080000214B07221A70214B00221A70204B48221A701D4B00221A701E4B02221A701E4B04221A701D4A1D4B1B78DBB243F00103DBB213701A4A1A4B1B78DBB243F0010388
:40084000DBB21370174A174B1B78DBB263F07F03DBB213700837BD4680BD00BF804000408240004000410040E80000480043004000420040A146004008010049224200408D
:400880002042004025420040044000400640004008400040014000400B400040A2430040A1430040A043004080B483B000AF0E4B1B78FB710D4AFB7903F00703DBB213709F
:4008C0000B4AFB791B09DBB213700A4B01221A70094B10221A70094B44221A700C37BD465DF8047B704700BFCF0100496E5800406F5800400D510040005B004076580040A8
:4009000080B483B000AF0346FB71FB79012B0ED8FB79094A52F82330FA79074951F822201178FA790548825C0A43D2B21A700C37BD465DF8047B7047EC2D0000F42D000027
:4009400080B483B000AF0346FB71FB79012B10D8FB790A4A52F82330FA79084951F822201178FA790648825CD243D2B20A40D2B21A700C37BD465DF8047B7047EC2D00006D
:40098000F42D000080B582B000AF72B63D4A3D4B1B78DBB243F00403DBB213700023FB7113E0FA7913465B0013445B00364A13443B603B681A683B689B889BB210461946A5
:4009C000FFF774FEFB790133FB71FB79082BE8D94FF090402D49FFF78BFE2D4B0A221A702C4A2C4B1B78DBB243F00203DBB21370294A294B1B78DBB243F00203DBB213703D
:400A0000264A264B1B78DBB243F04003DBB21370234A234B1B78DBB243F01003DBB21370204821490822FFF74FFE204820490822FFF74AFE1F4820490822FFF745FE1F48CC
:400A40001F490A22FFF740FE1E4A1E4B1B78DBB243F00803DBB213701B4B00221A70FFF781FE194B80221A70184B01221A70FFF71BFF174809490E22FFF726FE0837BD46FB
:400A800080BD00BFE8460040F82D000048000048835800400350014013500140A0430040C243004002510040C400004812510040CC00004822510040D40000486051004046
:400AC000DC000048224300400048004004000840B043004080B500AF282000F007FA032000F0C8F9052000F001FA032000F0C2F90F2000F0FBF9032000F0BCF9012000F06B
:400B0000F5F9022000F0B6F9052000F0EFF9062000F09EF80E2000F09BF82C2000F098F8082000F095F8012000F092F80C2000F08FF8032000F08CF8052000F0D7F980BD44
:400B400080B500AF0C2000F083F8024B01221A7080BD00BFAC81FF1F80B500AF054B1B78002B04D1FFF7B6FF024B01221A70FFF7E7FF80BDAD81FF1F80B582B000AF034689
:400B80000A46FB711346BB71FB79032B26D801A252F823F0A50B0000B30B0000C10B0000CF0B0000BB79803BDBB2184600F050F815E0BB79403BDBB2184600F049F80EE080
:400BC000BB796C3BDBB2184600F042F807E0BB792C3BDBB2184600F03BF800E000BF0837BD4680BD80B584B000AF78600123FB737B681B78BB730BE0BB7B184600F00EF8BC
:400C0000FB7B7A6813441B78BB73FB7B0133FB73BB7B002BF0D11037BD4680BD80B584B000AF0346FB7100F02DF8FB791B09FB73FB7B184600F0E2F8FB7903F00F03FB7316
:400C4000FB7B184600F0DAF81037BD4680BD00BF80B584B000AF0346FB7100F013F8FB791B09FB73FB7B184600F004F9FB7903F00F03FB73FB7B184600F0FCF81037BD4620
:400C800080BD00BF80B582B000AF4FF4CA737B60554A554B1B78DBB223F07F03DBB21370524B1B78DBB223F00F03FB704F4AFB7843F00F03DBB213704D4B1B78DBB223F04A
:400CC0000F03FB704A4AFB7813704A4B1B78DBB223F00F03FB70474AFB781370424A424B1B78DBB223F02003DBB213703E4A3E4B1B78DBB243F04003DBB21370002000F0DB
:400D000017F9394A384B1B78DBB243F01003DBB21370012000F00CF9374B1B78FB70324A314B1B78DBB223F01003DBB21370002000F0FEF8FB7803F00803FB702A4A2A4B78
:400D40001B78DBB243F01003DBB21370012000F0EFF8254A244B1B78DBB223F01003DBB21370FB78002B02D10A2000F0E1F87B68013B7B60FB78002B02D07B68002BBDD167
:400D8000194A194B1B78DBB223F04003DBB21370154A154B1B78DBB223F07F03DBB21370124A124B1B78DBB223F00F03DBB213700F4B1B78DBB223F00F03FB700C4AFB7881
:400DC00043F00F03DBB213700A4B1B78DBB223F00F03FB70074AFB7843F00F03DBB213700837BD4680BD00BF205100402251004023510040245100402151004080B582B05C
:400E000000AF0346FB711A4A194B1B78DBB243F02003DBB21370164A154B1B78DBB223F04003DBB21370002000F082F8104A104B1B78DBB223F00F03DBB213700C490C4B7A
:400E40001B78DAB2FB791343DBB243F01003DBB20B70012000F06CF8054A054B1B78DBB223F01003DBB213700837BD4680BD00BF2051004080B582B000AF0346FB71144A2C
:400E8000134B1B78DBB223F06003DBB21370104A0F4B1B78DBB223F00F03DBB213700C490B4B1B78DAB2FB791343DBB243F01003DBB20B70012000F03BF8054A044B1B7841
:400EC000DBB223F01003DBB213700837BD4680BD2051004080B483B000AF0346FB7101BE0C37BD465DF8047B704700BF80B582B000AF786008E00C4B1B68184601F0CCFA20
:400F00007B68A3F500437B607B68B3F5004FF2D8064B1B687A6802FB03F3184601F0BCFA0837BD4680BD00BF2081FF1F1881FF1F80B582B000AF0346FB80FB88044A1278DD
:400F400002FB03F3184601F0A7FA0837BD4680BD1C81FF1F80B584B000AF03463960FB710F4B1B68FB60FB791F2B02D90020FFF7B1FFFB7903F01F0310339B00FA68134437
:400F80001B68BB60FB7903F01F0310339B00FA6813443A681A60BB6818461037BD4680BD08ED00E080B582B000AF03460A46FB711346BB71BB79072B02D90020FFF78AFFFA
:400FC000FB791F2B02D90020FFF784FFFB7903F01F0303F1604303F56443BA795201D2B21A700837BD4680BD80B582B002AF414B01221A70404B00221A70102000F0E8FD60
:40100000102000F0CBFE1D200721FFF7CBFF3B4B04221A703A4B00221A703A4B00221A70394A394B1B78DBB243F01803DBB21370364B00221A70364B00221A70354B002289
:401040001A70354B0A221A70344B00221A70344B00221A70334B5B221A70334B5E221A70324B00221A70324B14221A7001230093032047F602714FF40042102300F0B6FB04
:4010800002230093002049F2DA014FF40042102300F0ACFB03230093002049F2DA014FF40042102300F0A2FB04230093002049F2DA014FF40042102300F098FB1D4A0D4BD5
:4010C0001B78DBB2013B1C499B000B449B7813701A4A084B1B78DBB2013B174931F823301380044B1B78DBB2184600F079F9BD4680BD00BF2481FF1FB081FF1F96580040BF
:40110000975800409E580040075B004093580040885B0040895B004080580040815800408358004088580040895800408D580040014E00400E4E0040B481FF1F0C4E00406C
:4011400080B582B000AF01F0C6F90346FB71444B1B78BB71434A434B1B78DBB243F00103DBB213703F4A3F4B1B78DBB243F01003DBB213703C4A3C4B1B78DBB243F0010337
:40118000DBB21370384A384B1B78DBB243F01003DBB21370354A354B1B78DBB243F00203DBB21370324A324B1B78DBB243F00203DBB213702F4A2F4B1B78DBB243F0030390
:4011C000DBB213700320FFF7B3FE284A274B1B78DBB223F00203DBB21370254A244B1B78DBB223F00203DBB21370234A224B1B78DBB243F00603DBB21370204B7A221A70EC
:401200001F4A1F4B1B78DBB243F00103DBB213701C4A1C4B1B78DBB243F00103DBB21370194A194B1B78DBB243F00103DBB21370164A164B1B78DBB243F00103DBB21370EA
:40124000134B4FF000521A60124B4FF000521A60FB79184601F043F90837BD4680BD00BF2481FF1FAA430040BA430040F8460040F9460040915800407758004082580040E4
:40128000A1430040B1430040A2430040B243004080E200E000E100E080B500AF084B1B78002B09D1074B1B78DBB2002B01D1FFF79BFE034B01221A70FFF742FF80BD00BF7E
:4012C000B281FF1FB381FF1F80B400AF054A054B1B78DBB243F00103DBB21370BD465DF8047B7047004E004080B485B000AF0346FB710E4B1B78DBB2002B03D00C4B1B7818
:40130000FB7305E00B4B1B78DBB203F00103FB73FB7B012B02D0FB79002BEAD0FB7B18461437BD465DF8047B704700BFB181FF1FB081FF1F014E004080B483B000AF224B95
:401340001B78DBB203F00303FB70FB78012B0BD81E4B1B889BB27B607B681B041C4A128892B213437B6020E0FB78022B12D1174B1B889BB27B607B681B04154A1278D2B29D
:4013800013437B60134B1B78DBB21B027A6813437B600AE00E4B1B889BB27B600B4B1B889BB21B047A6813437B600B4B1B78DBB2002B02D0094B00221A707B6818460C37D1
:4013C000BD465DF8047B7047144E0040124E0040104E0040114E0040B181FF1FB081FF1F80B582B000AF0346FB71C34B00221A70FB79012B66D1C14B38221A70C04B0422C4
:401400001A70C04B06221A70BF4B00221A70BF4B00221A70BE4B3F221A70BE4B00221A70BD4B00221A70BD4B00221A70BC4B01221A70BC4B50221A70BB4B07221A70BB4B72
:4014400029221A70BA4B00221A70BA4B55221A70B94B5A221A70B94B00221A70B84B01221A70B84B11221A70B74B19221A70B74B97221A70442000F06FFAB54B58221A70E9
:40148000B44B00221A70B44B05221A70B34B02221A70B34B00221A70B24B00221A70002000F0C6FAB04B42F6AB121A600820012100F0D2FA2520012100F0B4FB1D20AB495B
:4014C000FFF748FDFB79022B66D18C4B38221A708B4B04221A708B4B06221A708A4B00221A708A4B00221A70894B3F221A70894B00221A70884B00221A70884B00221A70D1
:40150000874B01221A70874B50221A70864B27221A70864B2C221A70854B00221A70854B55221A70844B5A221A70844B05221A70834B01221A70834B11221A70824B192261
:401540001A70824B97221A70442000F005FA804B58221A707F4B00221A707F4B05221A707E4B02221A707E4B00221A707D4B00221A70002000F05CFA7B4B4FF47A421A60B9
:401580000820012100F068FA2520012100F04AFB1D207749FFF7DEFCFB79032B66D1574B38221A70564B04221A70564B06221A70554B00221A70554B00221A70544B3F228B
:4015C0001A70544B00221A70534B00221A70534B00221A70524B01221A70524B50221A70514B27221A70514B2C221A70504B00221A70504B55221A704F4B5A221A704F4B9F
:4016000005221A704E4B01221A704E4B11221A704D4B19221A704D4B97221A70442000F09BF94B4B58221A704A4B00221A704A4B05221A70494B02221A70494B00221A709A
:40164000484B00221A70002000F0F2F9464B4FF47A421A600820012100F0FEF92520012100F0E0FA1D204349FFF774FCFB79042B40F0A980214B38221A70214B04221A702D
:40168000204B06221A70204B00221A701F4B00221A701F4B3F221A701E4B00221A701E4B00221A701D4B00221A701D4B01221A701C4B50221A701C4B27221A701B4B2C22E7
:4016C0001A701B4B00221A701A4B55221A701A4B5A221A70194B05221A70194B01221A70184B11221A70184B19221A70174B97221A70442040E000BFB181FF1F004E004049
:40170000024E0040034E0040044E0040054E0040064E0040084E0040094E00400A4E0040144E0040845800408558004086580040875800408A5800408B5800408C58004089
:401740008E5800408F580040905800409158004094580040955800409A5800409B5800409C5800409D580040E881FF1FD1190000DD190000E919000000F0EEF8134B58228D
:401780001A70134B00221A70124B05221A70124B02221A70114B00221A70114B00221A70002000F045F90F4B4FF47A421A600820012100F051F92520012100F033FA1D2006
:4017C0000949FFF7C7FB0837BD4680BD94580040955800409A5800409B5800409C5800409D580040E881FF1FF519000090B587B000AF0446084611461A462346FB7103460C
:40180000BB800B467B801346BB7197F82830002B00F08A8097F82830042B00F28580FB79013B092B4AD801A252F823F055180000BD180000BD18000055180000BD18000024
:40184000BD1800006F18000089180000BD180000A3180000BB790F2B04D9364B1B78DBB2FB752EE0344B1B78DBB2FB7529E0BB790F2B04D9314B1B78DBB2FB7521E0304B86
:401880001B78DBB2FB751CE0BB790F2B04D92D4B1B78DBB2FB7514E02B4B1B78DBB2FB750FE0BB790F2B04D9284B1B78DBB2FB7507E0274B1B78DBB2FB7502E00023FB75B4
:4018C00000BFBA8897F917305B0113443B617B883A6902FB03F3FB60FB68DB0BBB82BB790D2B11D8BB8ABA79C2F10E021341BB8297F82830013BBA790132D1B2154A9B0020
:4019000013440A469A7007E097F82830013B114A9B0013440F229A7097F82830013B0D49BA8A21F8232002E00020FFF7D3FA1C37BD4690BD180100491C01004919010049B8
:401940001D0100491A0100491E0100491B0100491F010049B481FF1F80B584B000AF0346FB7100F0B8FD0346FB73164A154B1B78DBB243F00303DBB21370134A124B1B7874
:40198000DBB243F00303DBB21370104AFB7913700320FFF7CDFA0B4A0A4B1B78DBB223F00303DBB21370084A074B1B78DBB223F00303DBB21370FB7B184600F090FD1037A8
:4019C000BD4680BDF8460040F94600409258004080B400AFBD465DF8047B704780B400AFBD465DF8047B704780B400AFBD465DF8047B704780B400AFBD465DF8047B7047BC
:401A000080B582B000AF0023FB7106E0FB791846FEF796FFFB790133FB71FB79012BF5D9024BFF221A700837BD4680BD2581FF1F80B582B000AF0346FB71FFF7E1FFFB79ED
:401A40001846FEF75DFF034AFB7913700837BD4680BD00BF2581FF1F80B584B000AF03460A46FB8013467B7100F0CCF80346FB7300F0A2F80346BB81FA88BB899A4200F0F4
:401A80008780454B1B78DBB203F00103FB72FB7B002B20D1BB89002B02D0FB88002B1AD1BB89002B0BD13D4AFB8813803C4A3C4B1B78DBB223F04003DBB2137068E0384A5A
:401AC000374B1B78DBB243F04003DBB21370334AFB8813805CE0FB7A002B33D0314B00221A70314B01221A70304B00221A70304A2F4B1B78DBB203F07F03DBB21370284BC8
:401B00001B78DBB203F00803002B02D0FB88002B18D1284ABB891380224B07221A7000BF204B1B78DBB203F00103002BF8D11A4A194B1B78DBB223F00103DBB21370194BE2
:401B400000221A70144B1B78DBB203F00103002B13D0184AFB881380124A7B79002B01D0032300E00123137000BF0E4B1B78DBB203F00103002BF8D10AE0084AFB8813804F
:401B80000549054B1B78DAB2FB7A1343DBB20B701037BD4680BD00BFA24300408040004082400040014000401040004014400040084000400240004080B400AF034B1B88A5
:401BC0009BB21846BD465DF8047B70478040004080B483B000AF0346FB71094B084A1278D2B2D1B2FA7922F00702D2B20A43D2B2D2B21A700C37BD465DF8047B704700BF29
:401C00008240004080B400AF054B1B78DBB203F00703DBB21846BD465DF8047B704700BF8240004080B584B000AF03460A46FB8013467B7100F0CCF80346FB7300F0A2F8B2
:401C40000346BB81FA88BB899A4200F08780454B1B78DBB203F00103FB72FB7B002B20D1BB89002B02D0FB88002B1AD1BB89002B0BD13D4AFB8813803C4A3C4B1B78DBB2B1
:401C800023F04003DBB2137068E0384A374B1B78DBB243F04003DBB21370334AFB8813805CE0FB7A002B33D0314B00221A70314B01221A70304B00221A70304A2F4B1B785B
:401CC000DBB203F07F03DBB21370284B1B78DBB203F00803002B02D0FB88002B18D1284ABB891380224B07221A7000BF204B1B78DBB203F00103002BF8D11A4A194B1B78B4
:401D0000DBB223F00103DBB21370194B00221A70144B1B78DBB203F00103002B13D0184AFB881380124A7B79002B01D0032300E00123137000BF0E4B1B78DBB203F00103BB
:401D4000002BF8D10AE0084AFB8813800549054B1B78DAB2FB7A1343DBB20B701037BD4680BD00BFA1430040004100400241004001400040144000401040004008400040F2
:401D80000240004080B400AF034B1B889BB21846BD465DF8047B70470041004080B483B000AF0346FB71094B084A1278D2B2D1B2FA7922F00702D2B20A43D2B2D2B21A7020
:401DC0000C37BD465DF8047B704700BF0241004080B400AF054B1B78DBB203F00703DBB21846BD465DF8047B704700BF0241004080B485B000AF0346FB710B4B1B78DBB282
:401E000023F00803FB730849FB79DB00DBB203F00803DAB2FB7B1343DBB20B701437BD465DF8047B704700BF6051004080B485B000AF0346FB710B4B1B78DBB223F00403A5
:401E4000FB730849FB799B00DBB203F00403DAB2FB7B1343DBB20B701437BD465DF8047B704700BF6051004080B500AF134B02221A70134B81221A70124B08221A70124B3B
:401E80000F221A70114B00221A70114B4FF400421A600F200721FFF785F80F200D49FFF759F80D4B10221A700C4B00221A700C4B00221A700B4B00221A7080BDD6490040B6
:401EC000C8490040CA490040DB490040DC49004080E100E0591F0000EC81FF1FFD81FF1FF081FF1FF181FF1F80B582B000AF00F0F2FA0346FB710B4A0A4B1B78DBB243F0D2
:401F00000403DBB21370084A074B1B78DBB243F00403DBB21370FB79184600F0E0FA0837BD4680BDA5430040B543004080B500AF074B1B78002B04D1FFF796FF044B01223B
:401F40001A70FFF7D1FF034B4FF400421A6080BDC481FF1F00E100E080B582B000AFA84B1B78FB71A74B1B78DBB203F04003DBB2002B00F0AC81FB7903F00103002B00F0B8
:401F80008381A04B1B78DBB2453B052B00F2788101A252F823F000BFB11F0000D92000008122000081220000B11F0000C7210000FB7923F02003FB71FB7903F00A03DBB2DA
:401FC000082B46D18F4B1B78DBB2452B3AD18E4B1B78DBB2002B0FD08C4A8D4B1B681B78DBB21370864B04221A708A4B01221A70844B46221A706EE0874B1B78DBB203F054
:402000000203002B0FD0854B1B78DBB243F00A03DAB2824B1A707B4B60221A70804B4FF400421A6057E07F4A7E4B1B78DBB243F01003DBB213707C4B10221A70704B04223F
:402040001A7048E06E4B00221A706E4B4A221A701AE1FB7903F00A03DBB20A2B37D16F4B1B78DBB263F05F03DAB26C4B1A706A4B1B78DBB203F00203002B19D0614B1B78E5
:40208000DBB203F00803002B01D0092300E00A23DAB2624B1B78DBB21343DAB25F4B1A70584B60221A705E4B4FF400421A6012E05C4A5C4B1B78DBB243F01003DBB21370E5
:4020C000594B10221A704E4B04221A70DCE00020FEF700FFD8E0D7E0FB7903F00203002B42D14C4B1B78DAB2474B1B78DBB29A4214D2464A464B1B6846490978C9B20B44A6
:402100001B78DBB213703E4B04221A70414B1B78DBB20133DAB23F4B1A7053E03E4B1B78DBB203F00203002B0FD03C4B1B78DBB243F00A03DAB2394B1A70324B60221A705B
:40214000374B4FF400421A603CE0364A354B1B78DBB243F01003DBB21370334B10221A70274B04221A708FE02B4B1B78DBB203F00203002B0FD0294B1B78DBB263F065039A
:40218000DAB2264B1A701F4B60221A70244B4FF400421A6016E0234A224B1B78DBB243F01003DBB21370204B10221A70144B04221A701A4B1B78DBB263F06F03DAB2174B00
:4021C0001A7061E060E0194B1B68194A1278D2B213440E4A1278D2B21A70154B1B78DBB20133DAB2124B1A70114B1B78DAB2114B1B78DBB29A421FD2014B10221A703EE024
:40220000D7490040EC81FF1FF281FF1FD8490040F481FF1FF181FF1FFC81FF1FFD81FF1F80E100E0D6490040D9490040F881FF1FF081FF1FFE81FF1F2C4B1B78DBB203F018
:402240000203002B0FD02A4B1B78DBB243F00903DAB2274B1A70274B60221A70264B4FF400421A600BE0254A244B1B78DBB243F01003DBB21370224B00221A7004E003E0E6
:402280000020FEF727FE00BFFB7903F02003002B28D0184B1B78DBB203F00803002B01D0012300E00223DAB2114B1B78DBB21343DAB20F4B1A70114A104B1B78DBB223F01B
:4022C0001003DBB213700B4B10221A700AE0094B1B78DBB203F01003DBB2002B02D1054B10221A700837BD4680BD00BFFC81FF1FFD81FF1FEC81FF1F80E100E0D64900400E
:40230000D749004080B485B000AF03460A46FB711346BB710223FB73244B1B78DBB2102B3CD1234B1B78DBB203F00803002B33D1204B4FF400421A60FB795B00FB71BB799D
:40234000002B07D0FB7943F00103FB71174B49221A7002E0154B45221A70174AFB791370134B01221A7000BF144B1B78DBB203F00103002BF8D0114B1B78DBB203F00A03B3
:40238000DBB20A2B05D1094B10221A700323FB7304E00023FB7301E00123FB73FB7B18461437BD465DF8047B704700BFEC81FF1FD949004080E100E0D8490040D74900409E
:4023C00080B483B000AF0223FB71104B1B78DBB203F00403002B12D00C4B10221A700C4B04221A700B4B10221A7000BF084B1B78DBB203F02103002BF8D00023FB71FB7949
:4024000018460C37BD465DF8047B7047D9490040D7490040EC81FF1F80B485B000AF0346FB710223FB73184B1B78DBB203F00403002B22D0154AFB791370154B04221A70C0
:40244000144B46221A7000BF114B1B78DBB203F00103002BF8D00E4B1B78DBB203F00203002B05D10B4B60221A700023FB7304E0084B60221A700323FB73FB7B184614378B
:40248000BD465DF8047B7047D9490040D8490040D7490040EC81FF1F142816D902B4012114381049097811F0C001890904B40E4A515C04BC00BF00BF00BF8841FDD500BF4F
:4024C00000BF02BC704700BF00BF70F10400FCD570470B050709EFF3108072B6704780F31088704700480040D2240000AFF30080014B1868704700BF8881FF1F0E4B70B583
:402500001E460E4C0025E41AA410A54204D056F8253098470135F8E700F0A6FC084B094C1E46E41AA4100025A54204D056F8253098470135F8E770BD742E0000742E00007C
:40254000742E00007C2E000010B5431E0A44914204D011F8014B03F8014FF8E710BD03460244934202D003F8011BFAE7704700000EB400B54FF402719CB0ADF814106FF022
:402580000041049107914FF6FF711DABADF81610084953F8042B02900690086802A9019300F06CF8029B00221A701CB05DF804EB03B070478881FF1F034613F8012B002ADB
:4025C000FBD1181A013870472DE9F0478E688246B3420C469046994640D38A8912F4906F3AD02568096902236F1A656905EB450595FBF3F57B1C4B449D4238BF1D465305CD
:402600000FD5294600F030FB064698B121693A46FFF79AFFA38923F4906343F08003A38113E02A4600F076FB064670B95046216900F0D6FA0C23CAF80030A3894FF0FF301A
:4026400043F04003A381BDE8F08726613E4426604E466561ED1BA560B14500D24E4632462068414600F0A0FAA36800209B1BA36023681E442660BDE8F08700002DE9F04385
:402680009DB003938B8906461C060D4690460CD50B6953B9402100F0E7FA2860286110B90C233360CCE040236B610023099320238DF8293030238DF82A3043461C4613F87A
:4026C000012B1AB9B4EB08090FD002E0252AF5D1F8E73046294642464B46FFF775FF013000F0A980099B4B4409932378002B00F0A28000234FF0FF32049307930592069329
:402700008DF853301A9304F101084446DFF8489121784846052200F039FA08F10108049B30B1C9EB00000122824013430493ECE7D80644BF20228DF85320190744BF2B22D5
:402740008DF8532022782A2A02D0079923460EE0039A0134111D12680391002ABBBF524243F0020307920792B8BF04930AE01C4622780133303A092A03D80A2000FB012113
:40278000F5E7079123782E2B1AD163782A2B0AD1039B02341A1D1B680392002BB8BF4FF0FF3305930CE0611C00220C4623780131303B092B03D80A2000FB0232F5E70592FD
:4027C000DFF8988021784046032200F0DFF938B1049AC8EB00004023834013430493013421781A48062204F101088DF8281000F0CDF988B1164B33B9039B073323F007034D
:402800000833039313E003AB0093304604A92A46104BAFF3008007E003AB0093304604A92A460C4B00F092F8421C074603D0099B3B44099341E7AB895B0601D4099801E0A6
:402840004FF0FF301DB0BDE8F08300BF3C2E000000000000C9250000322E0000382E00002DE9F84391461F468A680B6906469342B8BF1346C9F8003091F843200C46DDF840
:40288000208012B10133C9F800302368990642BFD9F800300233C9F80030256815F006051CD094F843302268003318BF012392061FD5E118302081F843005A1C94F8451016
:4028C0002244023382F8431013E03046394604F119020123C047013007D00135E368D9F800209B1A9D42F0DBDBE74FF0FF30BDE8F8833046394604F14302C0470130F4D0F9
:402900002268D9F80050E36802F00602042A08BF5D1B2269A3680CBF25EAE57500259342C4BF9B1AED184FF00009A9450ADA3046394604F11A020123C0470130D5D009F11E
:402940000109F2E70020BDE8F88300002DE9FF410C461746227E98466E2A06460A9B01F1430100F0B08012D8632A23D00AD8002A00F0BD80582A40F0CC8084F84520DFF879
:4029800004E257E0642A1ED0692A1CD0C1E0732A00F0B18009D86F2A2ED0702A40F0B980226842F0200222603FE0752A24D0782A3BD0AEE01A6804F14205111D19601368F8
:4029C00084F84230A9E020681A6810F0800F02D0101D186008E010F0400F02F10400186002D0B2F9003000E01368002B3EDA2D225B4284F8432039E020681A6810F0800FE2
:402A000002D0101D186007E010F0400F02F10400186001D0138800E01368227EDFF864E16F2A0CBF08220A221CE07822DFF858E184F845202268186812F0800F00F1040521
:402A40001D6003D1550601D5038800E00368D00744BF42F0200222601BB9226822F0200222601022002084F8430002E0DFF814E10A226568002DA8BF2068A560A4BF20F0EE
:402A80000400206003B965B10D46B3FBF2F002FB10331EF8033005F8013D03460028F4D100E00D46082A0BD12368DA0708D5236962689A42DEBF302305F8013C05F1FF35D3
:402AC000491B21612EE025681A6815F0800F606903D0151D1D60136808E015F0400F02F104051D60136801D0188000E01860002323610D4616E01A68111D196015680021D1
:402B00002846626800F042F808B1401B6060636804E004F1420584F8422001232361002384F84330CDF800803046214603AA3B46FFF796FE013002D14FF0FF301FE030461B
:402B400039462A462369C0470130F5D023689B0705D4E068039B9842B8BF18460FE00025E368039A9B1A9D42F3DA3046394604F119020123C0470130DED00135F0E704B015
:402B8000BDE8F081432E0000542E000010B5C9B202449042034605D01C7801308C42F8D1184610BD002010BD814210B501EB020301D3421E0BE09842FBD28118D21AD34249
:402BC00004D013F8014D01F8014DF8E710BD994204D011F8014B02F8014FF8E710BD000030B500293CD051F8042C0B1F1D49002AB8BF9B180A680C4612B95A600B6030BDA3
:402C000093420DD219685818904201BF5A5852181A60426823605A6030BD994203D80A4651680029F9D1146815199D420AD11B682344D0188842136012D1086803441360C1
:402C40004B680CE002D90C23036030BD1C681819884201BF08684968001918605960536030BD00BFCC81FF1F70B5CC1C24F0030408340C2C38BF0C24002C064603DA0C23A0
:402C80003360002070BD8C42F9D3204A136810461946A1B10A68121B0ED40B2A03D90A608B188C501FE08B420BBF5A684A6802605A6018BF0B4616E00B464968E9E7144DBC
:402CC0002B681BB9304600F04BF828603046214600F046F8421C0346D1D0C51C25F0030585420AD11C6003F10B001A1D20F00700821A0AD05142995070BD3046E91A00F0F8
:402D00002FF80130BBD02B46ECE770BDCC81FF1FC881FF1FF8B5074615460E4621B91146BDE8F840FFF7A0BF1AB9FFF759FF2846F8BD00F025F8A8420ED238462946FFF763
:402D400093FF044650B131462A46FFF7FDFB38463146FFF745FF01E03046F8BD2046F8BD38B5064C0023054608462360FDF7E4FB431C02D1236803B12B6038BD0082FF1F69
:402D800051F8040C0028BEBF091851F8043CC018043870470000000050536F4320354C503A204F2D5661630049324320576F726B696E67004D505536303530005761697459
:402DC00020746F204C61756E636800000000000040000000140000005400000025642025642025642020202020000000035B00402443004040000000C849004019003051C2
:402E000000403000C05100401000F0510040100000000140001000140140000800400140000A004C0140000200500140200000004300232D302B2000686C4C006566674512
:402E400046470030313233343536373839414243444546003031323334353637383961626364656600000000F8B500BFF8BC08BC9E4670474D00000021060000F8B500BF62
:402E8000F8BC08BC9E46704729000000A02E00000881FF1F880000007800000000000000000000003F0000000882FF1F00366E01C05D0000180000000000E02E01FF000092
:402EC0000000000000000000000000000000000000000000000000000000000000000000302E00000000000000000000000000000000000000000000000000000000000074
:402F000000000000000000000000000000000000000000000000000000000000000000002881FF1F00000000000000000000000000000000000000000000000000000000CA
:402F40000000000000000000000000000000000000000000000000000000000000000000000000000000000000000000000000000000000000000000000000000000000051
:402F80000000000000000000000000000000000000000000000000000000000000000000000000000000000000000000000000000000000000000000000000000000000011
:402FC00000000000000000000000000000000000000000000000000000000000000000000000000000000000000000000000000000000000000000000000000000000000D1
:403000000000000000000000000000000000000000000000000000000000000000000000000000000000000000000000000000000000000000000000000000000000000090
:020000040003F7
:0200000480007A
:4000000002520040040A0140020B0140010D0140010F014002150140021B014002420140014301400C44014003450140054601400447014003480140034901400B4C01404C
:40004000034D01400151014030403441B802BE01D804DF011E40964096408E40EA01EC10EA01EC103E10CE2096100220081051045D017D088D04C008C202D404D601DE019D
:40008000E40295099810A220450895099810A220D00195099810A220A50825109610C820AA10B510EA8011011320150878107E2095099810A220A508C40EDE03AB20B50853
:4000C000EC0803C00000000000000100000B0B0000000000007F7F00000000004100000C4D004100000000002500180100000000000000000000000000000000000000001B
:4001000000000000000000000000000000000000000000000000000000000000000000000000000000000000000000000000000000000000000000000000000000000000BF
:40014000000000000000000000000000000000000000000000000000000000000000000000000000000000000000000000000000000000000000000000000000000000007F
:40018000000000000000000000000000000000000000000000000000000000000000000000000000000000000000000000000000000000000000000000000000000000003F
:4001C00000000000000000000000000000000000000000000000000000000000000000000000000000000000000000000000000000000000000000000000000000000000FF
:0200000490006A
:0400000000004005B7
:0200000490105A
:04000000BC90ACAF55
:0200000490303A
:02000000C1AC91
:0200000490402A
:4000000000000000000000000000000000000000000000000000000000000000000000000000000000000000000000000000000000000000000000000000000000000000C0
:400040000000000000000000000000000000000000000000000000000000000000000000000000000000000000000000000000000000000000000000000000000000000080
:400080000000000000000000000000000000000000000000000000000000000000000000000000000000000000000000000000000000000000000000000000000000000040
:4000C0000000000000000000000000000000000000000000000000000000000000000000000000000000000000000000000000000000000000000000000000000000000000
:0200000490501A
:0C00000000012E12306900012E23F215C1
:00000001FF